:100000000C9434000C9451000C9451000C94510049
:100010000C9451000C9451000C9451000C9451001C
:100020000C9451000C9451000C9451000C9451000C
:100030000C9451000C9451000C9451000C945100FC
:100040000C9451000C9451000C9451000C945100EC
:100050000C9451000C9451000C9451000C945100DC
:100060000C9451000C94510011241FBECFEFD8E026
:10007000DEBFCDBF13E0A0E0B1E0ECE2F1E002C0F2
:1000800005900D92A030B107D9F723E0A0E0B3E0CE
:1000900001C01D92A130B207E1F70E9476000C94D6
:1000A00094000C940000209A1EBC0DB407FEFDCFF6
:1000B0009EBD0DB407FEFDCF8EBD0DB407FEFDCF76
:1000C00020981EBC0DB407FEFDCF7EBD0DB407FE0B
:1000D000FDCF6EBD0DB407FEFDCF089584B18D62D6
:1000E00084B981E58CBD81E08DBD08950E946E00CC
:1000F000E0910003A0910003B0E0AA0FBB1FA05045
:10010000BF4F6D917C917058F0E0EE0FFF1FE050F3
:10011000FF4F8081918190580E945300809100038D
:0C0120008F5F80930003E4CFF894FFCFC2
:10012C000080248347866A898B8CAB8FC792E195BC
:10013C00F8980B9C199F23A227A526A81FAB10AEDD
:10014C00FBB0DEB3B9B68CB956BC17BFCDC17AC4FF
:10015C001CC7B3C93FCCBFCE33D19AD3F5D542D847
:10016C0082DAB3DCD7DEEBE0F1E2E8E4CFE6A6E836
:10017C006DEA23ECC9ED5EEFE2F054F2B5F304F551
:10018C0041F66BF784F889F97CFA5CFB29FCE3FCFB
:10019C0089FD1DFE9CFE09FF61FFA6FFD8FFF5FF40
:1001AC00FFFFF5FFD8FFA6FF61FF09FF9CFE1DFEB8
:1001BC0089FDE3FC29FC5CFB7CFA89F984F86BF77C
:1001CC0041F604F5B5F354F2E2F05EEFC9ED23EC21
:1001DC006DEAA6E8CFE6E8E4F1E2EBE0D7DEB3DCCB
:1001EC0082DA42D8F5D59AD333D1BFCE3FCCB3C93E
:1001FC001CC77AC4CDC117BF56BC8CB9B9B6DEB317
:10020C00FBB010AE1FAB26A827A523A2199F0B9CF1
:10021C00F898E195C792AB8F8B8C6A8947862483BB
:10022C000080DB7CB879957674735470386D1E6AD7
:10023C000767F463E660DC5DD85AD957E054EF5198
:10024C00044F214C46497346A943E840323E853B56
:10025C00E3384C36C0334031CC2E652C0A2ABD27EE
:10026C007D254C232821141F0E1D171B30195917DF
:10027C009215DC133612A1101D0FAB0D4A0CFB0AA4
:10028C00BE0994087B0776068305A304D6031C03DA
:10029C007602E2016301F6009E00590027000A0075
:1002AC0000000A00270059009E00F6006301E201DD
:1002BC0076021C03D603A304830576067B079408F9
:1002CC00BE09FB0A4A0CAB0D1D0FA1103612DC1334
:1002DC00921559173019171B0E1D141F28214C236A
:1002EC007D25BD270A2A652CCC2E4031C0334C36D7
:1002FC00E338853B323EE840A94373464649214CDE
:10030C00044FEF51E054D957D85ADC5DE660F463E2
:10031C0007671E6A386D547074739576B879DB7CF8
:00000001FF
