:100000000C9434000C9451000C9451000C94510049
:100010000C9451000C9451000C9451000C9451001C
:100020000C9451000C9451000C9451000C946900F4
:100030000C9451000C9451000C9451000C945100FC
:100040000C9451000C9451000C9451000C945100EC
:100050000C9451000C9451000C9451000C945100DC
:100060000C9451000C94510011241FBECFEFD8E026
:10007000DEBFCDBF13E0A0E0B1E0ECECF1E002C0E8
:1000800005900D92A030B107D9F723E0A0E0B3E0CE
:1000900001C01D92A130B207E1F70E94D9000C9473
:1000A000E4000C940000409A0000000088B118B8E9
:1000B000089588E08093800089E68093890088E134
:1000C0008093880081E08093810082E080936F00BC
:1000D00008951F920F920FB60F9211240F931F9342
:1000E0002F933F934F935F936F937F938F939F9340
:1000F000AF93BF93CF93DF93EF93FF9395B180E2DC
:10010000892785B9419A88B118B8C0E1D0E000E0EC
:1001100010E8E0910003F0E0EE0FFF1FE050FF4F0A
:100120008081918180239123892B19F488B118B89B
:1001300001C0429A0E94530016950795219749F7EE
:1001400088B118B888B118B8C0E1D0E000E010E874
:10015000E0910003F0E0EE0FFF1FE050FF4F8081C1
:10016000918180239123892B19F488B118B801C09B
:10017000429A0E94530016950795219749F780915E
:1001800000038F5F80930003FF91EF91DF91CF9188
:10019000BF91AF919F918F917F916F915F914F919F
:1001A0003F912F911F910F910F900FBE0F901F90B5
:1001B000189580E284B90E94590088B118B887B1B7
:0C01C000876087B97894FFCFF894FFCFD8
:1001CC000080248347866A898B8CAB8FC792E1951C
:1001DC00F8980B9C199F23A227A526A81FAB10AE3D
:1001EC00FBB0DEB3B9B68CB956BC17BFCDC17AC45F
:1001FC001CC7B3C93FCCBFCE33D19AD3F5D542D8A7
:10020C0082DAB3DCD7DEEBE0F1E2E8E4CFE6A6E895
:10021C006DEA23ECC9ED5EEFE2F054F2B5F304F5B0
:10022C0041F66BF784F889F97CFA5CFB29FCE3FC5A
:10023C0089FD1DFE9CFE09FF61FFA6FFD8FFF5FF9F
:10024C00FFFFF5FFD8FFA6FF61FF09FF9CFE1DFE17
:10025C0089FDE3FC29FC5CFB7CFA89F984F86BF7DB
:10026C0041F604F5B5F354F2E2F05EEFC9ED23EC80
:10027C006DEAA6E8CFE6E8E4F1E2EBE0D7DEB3DC2A
:10028C0082DA42D8F5D59AD333D1BFCE3FCCB3C99D
:10029C001CC77AC4CDC117BF56BC8CB9B9B6DEB376
:1002AC00FBB010AE1FAB26A827A523A2199F0B9C51
:1002BC00F898E195C792AB8F8B8C6A89478624831B
:1002CC000080DB7CB879957674735470386D1E6A37
:1002DC000767F463E660DC5DD85AD957E054EF51F8
:1002EC00044F214C46497346A943E840323E853BB6
:1002FC00E3384C36C0334031CC2E652C0A2ABD274E
:10030C007D254C232821141F0E1D171B301959173E
:10031C009215DC133612A1101D0FAB0D4A0CFB0A03
:10032C00BE0994087B0776068305A304D6031C0339
:10033C007602E2016301F6009E00590027000A00D4
:10034C0000000A00270059009E00F6006301E2013C
:10035C0076021C03D603A304830576067B07940858
:10036C00BE09FB0A4A0CAB0D1D0FA1103612DC1393
:10037C00921559173019171B0E1D141F28214C23C9
:10038C007D25BD270A2A652CCC2E4031C0334C3636
:10039C00E338853B323EE840A94373464649214C3D
:1003AC00044FEF51E054D957D85ADC5DE660F46342
:1003BC0007671E6A386D547074739576B879DB7C58
:00000001FF
